{
  "_format": "hh-sol-artifact-1",
  "contractName": "PayAndReceipt",
  "sourceName": "contracts/PayAndReceipt.sol",
  "abi": [
    {
      "inputs": [
        {
          "internalType": "address",
          "name": "receiptNft",
          "type": "address"
        }
      ],
      "stateMutability": "nonpayable",
      "type": "constructor"
    },
    {
      "anonymous": false,
      "inputs": [
        {
          "indexed": true,
          "internalType": "uint256",
          "name": "receiptId",
          "type": "uint256"
        },
        {
          "indexed": true,
          "internalType": "address",
          "name": "payer",
          "type": "address"
        },
        {
          "indexed": true,
          "internalType": "address",
          "name": "merchant",
          "type": "address"
        },
        {
          "indexed": false,
          "internalType": "address",
          "name": "token",
          "type": "address"
        },
        {
          "indexed": false,
          "internalType": "uint256",
          "name": "amount",
          "type": "uint256"
        },
        {
          "indexed": false,
          "internalType": "string",
          "name": "code",
          "type": "string"
        },
        {
          "indexed": false,
          "internalType": "string",
          "name": "metaURI",
          "type": "string"
        }
      ],
      "name": "ReceiptIssued",
      "type": "event"
    },
    {
      "inputs": [],
      "name": "owner",
      "outputs": [
        {
          "internalType": "address",
          "name": "",
          "type": "address"
        }
      ],
      "stateMutability": "view",
      "type": "function"
    },
    {
      "inputs": [
        {
          "internalType": "address",
          "name": "merchant",
          "type": "address"
        },
        {
          "internalType": "string",
          "name": "code",
          "type": "string"
        },
        {
          "internalType": "string",
          "name": "metaURI",
          "type": "string"
        }
      ],
      "name": "payETH",
      "outputs": [],
      "stateMutability": "payable",
      "type": "function"
    },
    {
      "inputs": [],
      "name": "receipt",
      "outputs": [
        {
          "internalType": "contract IReceiptNFT",
          "name": "",
          "type": "address"
        }
      ],
      "stateMutability": "view",
      "type": "function"
    }
  ],
  "bytecode": "0x608060405234801561001057600080fd5b506040516104bc3803806104bc83398101604081905261002f91610062565b60008054336001600160a01b031991821617909155600180549091166001600160a01b0392909216919091179055610092565b60006020828403121561007457600080fd5b81516001600160a01b038116811461008b57600080fd5b9392505050565b61041b806100a16000396000f3fe6080604052600436106100345760003560e01c80638da5cb5b14610039578063973e8f1214610075578063e1e6b8981461008a575b600080fd5b34801561004557600080fd5b50600054610059906001600160a01b031681565b6040516001600160a01b03909116815260200160405180910390f35b61008861008336600461029e565b6100aa565b005b34801561009657600080fd5b50600154610059906001600160a01b031681565b600034116100ec5760405162461bcd60e51b81526004016100e3906020808252600490820152637a65726f60e01b604082015260600190565b60405180910390fd5b6000856001600160a01b03163460405160006040518083038185875af1925050503d8060008114610139576040519150601f19603f3d011682016040523d82523d6000602084013e61013e565b606091505b505090508061017b5760405162461bcd60e51b81526020600482015260096024820152681e19995c8819985a5b60ba1b60448201526064016100e3565b60015460405163d0def52160e01b81526000916001600160a01b03169063d0def521906101b090339088908890600401610356565b6020604051808303816000875af11580156101cf573d6000803e3d6000fd5b505050506040513d601f19601f820116820180604052508101906101f39190610384565b9050866001600160a01b0316336001600160a01b0316827f3082b6386ae980174f81b3cb0d517adc4740c6d1ae8401548ee6f9b4858d89366000348b8b8b8b6040516102449695949392919061039d565b60405180910390a450505050505050565b60008083601f84011261026757600080fd5b50813567ffffffffffffffff81111561027f57600080fd5b60208301915083602082850101111561029757600080fd5b9250929050565b6000806000806000606086880312156102b657600080fd5b85356001600160a01b03811681146102cd57600080fd5b9450602086013567ffffffffffffffff808211156102ea57600080fd5b6102f689838a01610255565b9096509450604088013591508082111561030f57600080fd5b5061031c88828901610255565b969995985093965092949392505050565b81835281816020850137506000828201602090810191909152601f909101601f19169091010190565b6001600160a01b038416815260406020820181905260009061037b908301848661032d565b95945050505050565b60006020828403121561039657600080fd5b5051919050565b60018060a01b03871681528560208201526080604082015260006103c560808301868861032d565b82810360608401526103d881858761032d565b999850505050505050505056fea26469706673582212205ae14c8e0d02b8e12dee05557c5a39a14bc2707a001a75bb5f66e65262e0e62e64736f6c63430008180033",
  "linkReferences": {},
  "deployedLinkReferences": {}
}